:020000040800F2
:10000000180800204501000875470008BB2B0008B0
:10001000E94000081D090008915100080000000097
:10002000000000000000000000000000A14B0008DC
:10003000530A000800000000894A0008094C000823
:100040005F0100085F0100085F0100085F01000810
:100050005F0100085F0100085F010008990A0008BD
:10006000E10A00085F0100085F0100085F01000865
:100070005F0100085F0100085F0100085F010008E0
:10008000110A00081D0A0008C10700085F010008E6
:100090005F0100085F0100085F0100085F010008C0
:1000A0005F0100085F0100085F0100085F010008B0
:1000B0005F0100085F0100085F010008BD2B000818
:1000C0005F0100085F0100085F0100085F01000890
:1000D0005F0100085F0100085F0100085F01000880
:1000E000550A00085F0100085F0100085F01000871
:1000F0005F0100085F0100085F0100085F01000860
:100100005F0100085F0100085F0100085F0100084F
:100110005F0100085F0100085F0100085F0100083F
:100120005F0100085F0100085F0100085F0100082F
:10013000DFF80CD000F032FB00480047795200088D
:10014000180800200648804706480047FEE7FEE7FB
:10015000FEE7FEE7FEE7FEE7FEE7FEE7FEE7FEE777
:10016000894C000831010008202A04DB203A21FADA
:1001700002F00021704721FA02F3D040C2F12002C0
:100180009140084319467047D2B201E000F8012BB4
:10019000491EFBD270470022F6E710B513460A4607
:1001A00004461946FFF7F0FF204610BDF0B480EA80
:1001B0000102D40F4200B2EB410F02D202460846C0
:1001C00011464A0042D0C30DDDB2C1F3C752AD1A89
:1001D000202D35DAC1F3160141F4000204B1524278
:1001E000C5F1200602FA06F12A411044B3EBD05FB4
:1001F00023D0C4B1012DA0EBC35009DCF0BC4FF0FB
:10020000004202EAC352DBB200F5000000F03ABA45
:10021000400000F1807000EBC350A0F1807040EA14
:10022000D170490009E0490841EAC071A0EBC35010
:1002300000F50000400800EBC350F0BC00F019BA14
:100240006142012202EB4101001BF6E7F0BC70475E
:1002500081F00041AAE780F00040A7E780EA0102B0
:1002600010B502F00043400022D04A001FD0010E1A
:1002700001EB1261C0F35600C2F3560240F40000D5
:1002800042F40002A0FB022000047F39140400D0D5
:10029000401C50EA124001D44000491EC2B20C0674
:1002A00004EBD010401C4008802A02D003E000205C
:1002B00010BD20F00100002900DA0020184310BD15
:1002C00030B480EA010202F0004530F0004221F033
:1002D000004013D090B1C30DD40DC2F31601C0F38A
:1002E0001600E41A41F4000140F400027D3491420A
:1002F00001D3641C00E04900002C02DA30BC00206D
:1003000070474FF400000023914201D3891A034340
:1003100040084FEA4101F7D151B1914202D14FF06B
:10032000004105E002D24FF0010101E06FF0010150
:1003300003EBC450284430BC00F09BB92DE9FE4FBC
:10034000804681EA0300C00F0C46009021F0004176
:1003500023F00045B8EB0200A94105D240462146F2
:1003600090461C460B46024623F00040104347D0FF
:10037000270DC7F30A00C3F30A510290401A0190F7
:1003800040286BDAC3F3130040F4801B00989246B8
:1003900020B10023D2EB030A63EB0B0B0198594603
:1003A000C0F14002504600F043F906460D46504663
:1003B0005946019A00F04BF910EB08006141002406
:1003C00087EA115284EAE7731A4340D0009A62B375
:1003D000019A012A4FEA075215DC001B61EB02016A
:1003E0004FF0004202EA0752CDE90042001C41F5FD
:1003F000801132462B4600F082F903B0BDE8F08F41
:1004000040462146F9E7001B61EB0201001C41F563
:10041000801300185B412018A2F5001747EB030179
:1004200040EAD570B6196D4111E06D084FEA360605
:1004300045EAC0754FEA0752001B61EB0201001C40
:1004400041F5801149084FEA300000195141324608
:100450002B4603B0BDE8F04F00F042B900980122EE
:1004600040000023D0EB020263EBE07300982146CA
:100470004FEAE074B8EB000061EB0401E9E783F0B8
:1004800000435BE781F0004158E72DE9FE4F81EA28
:10049000030404F0004421F0004100944FF0000BED
:1004A00023F0004350EA01045ED052EA03045BD01B
:1004B000C3F30A54C1F30A552C44A4F2F334019453
:1004C000A0FB0254C1F3130141F48011C3F31303E1
:1004D00043F4801301FB024400FB034E840A970A95
:1004E00044EA815447EA8357A4FB076802958D0AC2
:1004F00005FB07854FEA932C04FB0C542705029D4E
:100500004FEA065847EA1637B5EB08056EEB070CBD
:10051000870E920E47EA811742EA8312A7FB020177
:10052000B6EB0B0164EB00042B0D43EA0C335E18B1
:1005300044EB1C50DA465146E7FB0201C5F31304B5
:100540004FEA0B3343EA14534FEA0432019C43EA67
:100550000603A4F10C040294009CCDE900B400F061
:10056000CEF803B0BDE8F08F00200146F9E7C10FD7
:1005700080EAE0700844CA079623002100F082B8A0
:1005800096230022114600F07DB800F0004220F0D2
:100590000040C10DC0F3160040F400007F2901DACD
:1005A00000207047962903DCC1F19601C84001E0A4
:1005B00096398840002AF4D04042704700F000424B
:1005C00030F000400AD0C10D01F56071C0F3160093
:1005D00042EA0151C208400711437047002001461A
:1005E000704701F0004330B421F0004150EA0102AD
:1005F00006D00A0DA2F56072C1F31301002A02DCD5
:1006000030BC00207047440F44EAC104C100E01828
:1006100030BC00EBC25000F02CB80000002801DB19
:10062000C0F10040002901DBC1F100418842704760
:10063000202A04DB203A00FA02F1002070479140A2
:10064000C2F1200320FA03F3194390407047202A97
:1006500006DBCB17203A41FA02F043EAE07306E0EA
:1006600041FA02F3D040C2F12002914008431946FA
:1006700070470029A8BF7047401C490008BF20F000
:100680000100704710B4B0FA80FC00FA0CF050EA98
:10069000010404BF10BC704749B1CCF1200421FA19
:1006A00004F411FA0CF118BF012121430843A3EB14
:1006B0000C01CB1D4FEA00614FEA102042BF002021
:1006C00010BC704700EBC35010440029A4BF10BCFD
:1006D0007047401C490008BF20F0010010BC704763
:1006E00010B5141E73F1000408DA401C41F100013A
:1006F00092185B411A4301D120F0010010BD2DE991
:10070000F04D92469B4611B1B1FA81F202E0B0FA87
:1007100080F220329046FFF78BFF04460F4640EAF6
:100720000A0041EA0B0153465A46084313D01146CA
:1007300053EA010019D0C8F140025046FFF714FDFA
:1007400005460E46504659464246FFF771FF08439C
:1007500005D0012004E020463946BDE8F08D002098
:10076000054346EAE0762C4337430A986305E40ADA
:10077000A0EB08000022FD0A44EA47540A3002D5E3
:1007800000200146E9E7010510196941DDE9084546
:1007900000196941BDE8F04DA2E70000064C074D85
:1007A00006E0E06840F0010394E807009847103441
:1007B000AC42F6D3FFF7C0FCCC600008EC60000848
:1007C000014800F076BA00004801002070B50446E8
:1007D00000688168C943C9071CD1816821F0010103
:1007E000816000F04BFF05460FE000BF00F046FFC0
:1007F000401B022809D9A06A40F01000A062E06AFC
:1008000040F00100E062012070BD20688068C043B4
:10081000C007EBD0002070BDF8B500260446009656
:1008200000688168C943C90728D0816841F0010187
:100830008160134813490068B0FBF1F000E0401EEE
:1008400000900028FBD100F019FF054611E000BF21
:1008500000F014FF401B02280BD9A06A40F01000E2
:10086000A062E06A40F00100E06284F824600120A8
:10087000F8BD20688068C043C007E9D10020F8BDFA
:100880007400002040420F002DE9F041204E214924
:100890000127307800251446052828D2DFE800F02B
:1008A00003280B2813000D7001221A491A4802F080
:1008B0001DF937701CE009221748491C02F016F98F
:1008C0000320307014E04878FE2810D18878012881
:1008D0000DD1487A58B931F8030FE0804888A080DC
:1008E000888840422081A77200F0C8FE20603570E1
:1008F00000F0C4FE2168C831884206D3E580A58097
:100900002581A77200F0BAFE2060BDE8F0810000EA
:100910005A000020910000204C030020FEE710B593
:1009200040B9108840F6C414A04202D21844108086
:1009300000E01480002906D110884FF4FA71884233
:1009400002D9C01A108010BD118010BD70B5164CB0
:100950000821204600F084FE30B1251529462046A6
:1009600000F07EFE80B11DE001221021204600F043
:1009700080FE0A2004F027FF0821204600F070FEC8
:1009800001280FD1022070BD01221021204600F065
:1009900070FE0A2004F017FF2946204600F060FE92
:1009A0000128F0D0002070BD001001402DE9F04179
:1009B00000248046264600F061FE134F0546786805
:1009C000854204D3114800F0ADFAC8357D600E4968
:1009D0000020083140F6340331F8102016449A42C2
:1009E00001D2641CE4B2401CC0B20528F4D3052037
:1009F000B6FBF0F0A8F80000032C02D3FF20BDE8FE
:100A0000F0810020FBE700004800002048010020A2
:100A1000014800F085BB00008C030020014800F075
:100A20007FBB0000D003002030B590F84050012477
:100A3000AC40C56B6C60046863604368102B03684E
:100A400003D099600068C26030BD9A600068C160E0
:100A500030BD704770B50C480168090413D54FF4D8
:100A6000004404600421094800F0FAFD05462146CF
:100A7000074800F0F5FD07498542088801D1401E6E
:100A800000E0401C088070BD14040140000C0140CF
:100A9000000801400C0000200D4810B501688907CE
:100AA00010D5022101600B4800F0DAFD0A49012847
:100AB000086808D020F001000860486A074A906082
:100AC0000020486210BD40F00100086010BD000029
:100AD0001404014000100140001000403C000020C0
:100AE0000C4810B50168490712D5042101600A4875
:100AF00000F0B6FD04464FF40041084800F0B0FD98
:100B000007498442088801D1401C00E0401E08804B
:100B100010BD000014040140000C01400008014019
:100B20000C000020FEE7000070B512494268124C2C
:100B3000B1F900301A4442602368426D5B6A1BB20F
:100B40001A4442650D4AC36A15686D6A2DB22B447A
:100B5000C3620B4BC56F1E68766A36B23544C567F3
:100B6000002008802168486211684862196848625C
:100B700070BD00000C0000200C0200204C02002080
:100B80008C02002070470000F8B50024009490F813
:100B900024202546012A12D0012280F824204A6808
:100BA0001F23072A0DD20668776B521E02EB8202C2
:100BB00093409F430B6893401F43776319E00220E3
:100BC000F8BD06680D2A0AD2376BD21F02EB8202EB
:100BD00093409F430B6893401F43376309E0F76AD4
:100BE0000D3A02EB820293409F430B6893401F43F0
:100BF000F7620A68072306680A2A0AD3F7680A3ADE
:100C000002EB420293409F438B6893401F43F7607F
:100C100008E0376902EB420293409F438B689340A0
:100C20001F4337610A68102A01D0112A20D1124BC4
:100C300002689A4217D193681B0219D4936843F44F
:100C4000000393600968102912D10C490C4A096805
:100C5000B1FBF2F101EB8101490000E0491E009176
:100C60000029FBD104E0816A41F020018162012466
:100C700080F824502046F8BD002401407400002074
:100C800040420F0010B500F011F8074BA3F1080126
:100C90000A78052A23F8120004D0521CD0B208703A
:100CA000087010BD0020FBE7500000200068C06CF9
:100CB000704710B5044600684168890626D501686A
:100CC000890723D5A16AC90603D4A16A41F400713A
:100CD000A1628168C1F34241072910D1E16871B96D
:100CE000416821F020014160A06A20F48070A06278
:100CF000A06AC00403D4A06A40F00100A0622046AC
:100D0000FFF7C0FF21686FF012000860206841689B
:100D100009062ED5016849072BD5A16AC90603D457
:100D2000A16A41F40051A1628168C1F3023107292F
:100D300009D04168490515D48168C1F342410729AA
:100D400010D1E16871B9416821F080014160A06A69
:100D500020F48050A062A06AC00503D4A06A40F0CD
:100D60000100A0622046FFF70DFF21686FF00C0024
:100D700008602068416849060DD50068C0070AD0A0
:100D8000A06A40F48030A062204600F095F8216807
:100D90006FF00100086010BD2DE9F04104004FF034
:100DA00000057FD0A06A002628B9E66284F8246096
:100DB000204600F083F82046FFF708FDA16AC90627
:100DC00000D420B1A06A40F01000A0626AE0A16ADD
:100DD00021F4885141F00201A162334923688B421A
:100DE000E16904D1B1F5402F01D14FF40021E7684A
:100DF0004FF4807C41EA470261680A43A16861457B
:100E000008D0012906D00021D4F814E0BEF1010F6A
:100E100002D00AE06146F7E7C7B1A76A47F02007AA
:100E2000A762E76A47F00107E7625F6827F469474E
:100E30000F435F60236899681C4F394011439960E4
:100E4000A16861450BD0012909D00CE0DFF860E012
:100E5000A7690EEB47370F4347F40061E5E7218AA6
:100E60000D05A5F580152168CB6A23F470032B438B
:100E7000CB62216889680F4B1940914208D1E66224
:100E8000A16A21F0020141F00101A162BDE8F081F7
:100E9000A06A20F0020040F01000A062E06A40F07A
:100EA0000100E0620120F1E7003C0140FDF7E1FFB5
:100EB00000E0FFFFFE0E1FFF7047000000B585B089
:100EC000002100910191029103910068124988422A
:100ED00020D11248816941F400718161816901F476
:100EE00000710491816941F0040181618069694662
:100EF00000F00400049010200090032001900848A6
:100F000000F0BAFA00220621122000F03FFF122062
:100F100000F030FF05B000BD002401400010024089
:100F20000008014070B5044690F8240001280DD057
:100F3000012084F824002046FFF76EFC02004FF0E9
:100F4000000005D084F82400104670BD022070BD5A
:100F5000A16A40F60163994341F48071A162224D78
:100F600023682249AB4218D10E6816F4702F14D0B2
:100F7000A66A46F48016A6620E68760505D5A66AAE
:100F800026F4005646F48056A662A66AF6040AD5F0
:100F9000E66A26F00606E66206E0A66A26F48016F1
:100FA000A6625E68E9E7E06284F824006FF0020060
:100FB00018602068436843F020034360206883681A
:100FC000C3F34243072B05D1A84208D1096811F4A5
:100FD000702F04D0816841F480118160B4E781688A
:100FE00041F4A001F9E70000002801400424014079
:100FF0002DE9F05F90F821100024022903D004218C
:101000008163012485E001680A6822F00E020A600B
:1010100001680A6822F001020A603F4E3E4FB21595
:10102000DFF8F4C0DFF8F090DFF8ECA0DFF8E8B00C
:10103000DFF8E4E00168783F13011502ACF1640CBD
:10104000A9F15009AAF13C0AABF1280BAEF1140E3C
:101050004FF48018B14227D9B9420ED0614512D061
:1010600049451DD0514518D0594518D0714501D179
:10107000424615E0294EB14201D1012210E0274E2F
:101080001436B14201D110220AE0244E2836B14272
:1010900006D0224A3C32914201D11A4600E02A464B
:1010A0001E49091F0A602BE0B94213D0614517D0D1
:1010B000494522D051451DD059451DD0714501D11A
:1010C00042461AE0B14202D14FF0807215E0134E51
:1010D000B14201D1012210E0104E1436B14201D1CB
:1010E00010220AE00D4E2836B14206D00B4A3C329F
:1010F000914201D11A4600E02A46074980394A60E8
:10110000012180F82110002180F82010416B01B1ED
:1011100088472046BDE8F09F800002400804024056
:101120002DE9F05FC16B0A6801680B68046C4FF031
:10113000040808FA04F8844D844E854FDFF814C281
:10114000DFF81492DFF814A2DFF814B2DFF814E22B
:1011500018EA020F65D05FEA437862D50A68920602
:1011600003D40A6822F004020A60DFF8F0814FF429
:101170008062016808F1140813011402414524D962
:10118000A9420DD0B1420FD0B9421AD0614515D055
:10119000494515D0514501D1120312E0594501D1FD
:1011A00004220EE0714501D140220AE06D4D143554
:1011B000A94206D06B4A2832914201D11A4600E07A
:1011C00022466749091F0A6029E0A94213D0B142AB
:1011D00015D0B94220D061451BD049451BD051459F
:1011E00002D14FF4800217E0414502D14FF08062F6
:1011F00012E0594501D104220EE0714501D140228F
:101200000AE0584D1435A94206D0564A2832914278
:1012100001D11A4600E022464B4908394A60C16AAA
:1012200071E04FF0020808FA04F818EA020F70D0D3
:101230005FEA83786DD50A68920606D40A6822F0C0
:101240000A020A60012180F82110DFF810814FF4B2
:101250000072016808F1140813011402414524D9F1
:10126000A9420DD0B1420FD0B9421AD0614515D074
:10127000494515D0514501D1120312E0594501D11C
:1012800002220EE0714501D120220AE0354D1435CD
:10129000A94206D0334A2832914201D11A4600E0D1
:1012A00022462F49091F0A6029E0A94213D0B14202
:1012B00015D0B94220D061451BD049451BD05145BE
:1012C00002D14FF4001217E0414502D14FF00072F5
:1012D00012E0594501D102220EE0714501D12022D0
:1012E0000AE0204D1435A94206D01E4A2832914208
:1012F00001D11A4600E02246134908394A6000210C
:1013000080F82010816A00291CD0BDE8F05F0847F2
:10131000FFE70825A540154214D01A0712D50A6820
:1013200022F00E020A6090F84020C36B012101FAFE
:1013300002F25A60816380F82110002180F82010A9
:10134000016BE0E7BDE8F09F080002401C0002408E
:101350003000024044000240580002406C0002404D
:10136000080402401C04024030B560B11A4B026808
:1013700014219A4209D2194B1344B3FBF1F18900AD
:10138000016417490AE0012030BD134B5B4213444E
:10139000B3FBF1F1890001640F490839C1630221EF
:1013A00080F82110136843F6F0718B43F0E90114C3
:1013B0002143D0E902452C43214304692143446978
:1013C00021438469214319431160002141630122B3
:1013D00042770177084630BD08040240F8FFFDBFA0
:1013E0000000024070B5044690F820000025012856
:1013F0000CD0012084F8200094F821600020012EF8
:1014000006D084F820000225284670BD022070BD59
:10141000022684F82160A0632068066826F0010691
:1014200006602046FFF700FBE06A0028206801689C
:1014300002D041F00E0106E021F0040101602068B5
:10144000016841F00A0101602068016841F0010172
:101450000160D9E770B5044600F010F90546601C3C
:1014600002D004480078044400F008F9401BA04270
:10147000FAD370BD680000202DE9F84FDFF8B8A15D
:1014800000220AF1040B144601274FF00F090BF15B
:10149000040E00BF0B6807FA04F52B40AB4274D171
:1014A000DFF898C14E68A6EB0C0866452BD00DDC22
:1014B000032E34D005DC36B3012E19D0022E2FD1E5
:1014C0001BE0112E16D0122E2AD119E0B8F5881F74
:1014D00019D006DCB8F5803F15D0B8F5801F1FD1B4
:1014E00011E0B8F5001F0ED0B8F5041F18D10AE0BE
:1014F000CA6815E0CA68121D12E0CA6808320FE017
:10150000CA680C320CE08A682AB1012A4FF008023E
:1015100003D0456104E0042202E0056100E00022FE
:10152000FF2B01D8064601E000F104064FEA8405CE
:1015300001D9A5F12005D6F800C009FA05F82CEA72
:10154000080C02FA05F54CEA050CC6F800C04D6817
:10155000ED006AD53A4DAE6946F00106AE61AD695F
:1015600024F0030605F001050095364D06EB050C49
:10157000DCF80850A6074FEA167809FA08F6B543D2
:10158000314EB04202D100261AE04EE02F4EB0425A
:1015900001D1012614E02E4EB04201D102260FE007
:1015A0002C4EB04201D103260AE02B4EB04201D1AD
:1015B000042605E0294EB04201D1052600E00626AA
:1015C00006FA08F62E43CCF808604D68DAF8006099
:1015D000ED03554601D51E4300E09E432E604D6845
:1015E000AD0305D5DBF800601E43CBF8006004E0D6
:1015F000DBF800509D43CBF800504D68DEF80060EA
:10160000ED02754601D51E4300E09E432E604D68F5
:10161000AD0205D5084D0C352E681E432E6004E042
:10162000054E0C3635689D433560641C102CFFF464
:1016300031AFBDE8F88F0000000401400000111038
:10164000001002400000014000080140000C014071
:10165000001001400014014000180140001C01402E
:101660008068084000D001207047C2684A40C260CC
:1016700070470AB1016170470904FBE701488068BF
:101680007047000068000020704770472DE9F05F48
:1016900002680446D2F818805569566890F83E00F2
:1016A0007449DFF8D0A1DFF8CCB1DFF8CC918F1C02
:1016B0000AF17E0A0BF13E0B102812D0402810D000
:1016C0000D425BD0B00559D5936920460021DB431C
:1016D0005B0700D501219269D243120648D5828961
:1016E00047E015F0011F05D0B00503D5204601F0F5
:1016F000A0FD10E05F48801D054205D0B00503D570
:10170000606CC0B2106106E00D4204D0B00502D595
:10171000204601F001FD18EA090F14D015EA0A0F5E
:1017200008D0700506D53D4206D12046BDE8F05FE1
:1017300001F06EBC3D421FD0B0051DD52046BDE86E
:10174000F05F01F025BC15EA0B0F08D0700506D537
:101750003D4206D12046BDE8F05F01F077BB3D4237
:101760000AD0B00508D52046BDE8F05F01F00ABBFD
:10177000028B92B2FFF789FFBDE8F09F3D480E3023
:10178000054206D0B00504D52046BDE8F05F01F063
:10179000CDBD18EA090F4FF0280134D015EA0A0F21
:1017A00023D0700521D53D4221D194F83D3020460B
:1017B000628D002AE0D0426A541C446204681278A8
:1017C0002261428D521E4285428D002AD4D1292B9E
:1017D000D2D10268536823F48063536021220263EC
:1017E00080F83D1000F06DFAC6E73D42C4D0B00568
:1017F000C2D5608D0028BFD0606A411C616221683B
:101800000078086131E015EA0B0F22D0700520D571
:101810003D4220D194F83D302046648D002CABD061
:101820001469426A551C45621470428D521E4285ED
:10183000428D002AA0D12A2B9ED10268536823F43E
:10184000806353602222026380F83D1000F038FA72
:1018500092E73D4290D0B0058ED5608D00288BD0A8
:101860001169606A421C62620170608D401E608571
:1018700082E7000002000100040010007047000031
:1018800070B504001BD094F83D00002520B984F801
:101890003C50204600F0D4F9242084F83D00206814
:1018A000016821F00101016000F0CEFB404A61684F
:1018B000914201D83F4900E03F49884201D20120CE
:1018C00070BD3E492368B0FBF1F1596063689342F3
:1018D00006D94FF4967359434FF47A73B1FBF3F181
:1018E0002368491C19626168914210D84900401E62
:1018F000B0FBF1F2521CC2F30B02042A01D2042005
:1019000022E0B0FBF1F0401CC0F30B001CE0A36828
:10191000CBB301EBC10202EB0116421EB2FBF6F2A1
:10192000521C42F48042120536D06BB301EBC10267
:1019300002EB0111401EB0FBF1F0401CC0F30B00A4
:1019400040F4804040F400402168C861D4E90701B8
:10195000084321680860D4E90310084321688860BF
:10196000D4E9050108432168C8602068016841F096
:10197000010101602564202084F83D00256384F87E
:101980003E50002070BD00E008E001EB4106421E21
:10199000B2FBF6F2521CC6E70120D5E701EB41018C
:1019A000401EB0FBF1F0401CC0F30B00CAE7000082
:1019B000A086010080841E0000093D0040420F0007
:1019C00070477047704700002DE9F84F1F4690465A
:1019D0008A460446DDF82890FFF750FE064694F844
:1019E0003D0020287ED1192301224349204600963C
:1019F00001F031FD00287DD194F83C00012879D018
:101A0000012084F83C0020680168C90703D10168FF
:101A100041F0010101602068016821F4006101606A
:101A2000212084F83D00102084F83E000025256424
:101A3000C4F8248067853148E062608D2085334694
:101A40004A465146204601F059FA28B1206C84F8E4
:101A50003C5004284CD00DE020684169806900901A
:101A600030E032464946204601F06AFD28B1206C3C
:101A7000042838D00320BDE8F88F606A411C6162F9
:101A8000216800780861608D401E6085208D401EB1
:101A900080B2208521684A69D24352070BD450B1E5
:101AA000606A421C626200780861608D401E608539
:101AB000208D401E208532464946204601F0A4FC78
:101AC0000028D4D1208D0028CBD154F83D0B0168DB
:101AD00041F400710160202004F81E09E577657764
:101AE0000020C8E706E02068016841F40071016049
:101AF0000120C0E70220BEE7020010000000FFFF47
:101B0000704770472DE9FF4F83B09A46DDE9118792
:101B100093460446DDF84090FFF7B0FD064694F882
:101B20003D0020287DD119230122434920460096FB
:101B300001F091FC00287CD194F83C00012878D079
:101B4000012084F83C0020680168C90703D10168BE
:101B500041F0010101602068016821F40061016029
:101B6000212084F83D00402084F83E0000252564B3
:101B7000C4F82490A4F82A803048E062608D208563
:101B8000CDE9007653465A462046049901F07EFB83
:101B900080B3206C84F83C50042848D008E03246DA
:101BA0003946204601F0CCFC30B1206C042839D0F5
:101BB000032007B0BDE8F08F606A411C61622168B4
:101BC00000780861208D401E80B22085618D491EFD
:101BD000618521684A69D24352070BD468B1606AB3
:101BE000421C626200780861208D401E2085608D55
:101BF000401E6085208D0028D1D1324639462046CE
:101C000001F002FC0028D0D154F83D0B016841F4EA
:101C100000710160202004F81E09E5776577002037
:101C2000C7E706E02068016841F400710160012007
:101C3000BFE70220BDE70000020010000000FFFF28
:101C400010B586B0002100910191029103910068C6
:101C5000174988422AD1174CA06940F00800A061BA
:101C6000A069694600F0080004904FF440700090AD
:101C700012200190032003900F48FFF7FDFB0F484F
:101C8000416841F0E06141F002014160E06940F4E7
:101C90000010E061E069002200F4001004900321CC
:101CA0001F2000F073F81F2000F064F806B010BD8C
:101CB0000054004000100240000C014000000140B0
:101CC000704770470248816802781144816070470C
:101CD00068000020074810B5016841F0100101605C
:101CE000032000F073F8002000F006F800F024F85C
:101CF000002010BD0020024070B50D4D04464FF489
:101D00007A712878B1FBF0F00A490968B1FBF0F06C
:101D100000F072FB48B9102C07D200222146501E59
:101D200000F034F800206C6070BD012070BD000030
:101D300068000020740000200C4808B5816941F05B
:101D400001018161816901F001010091C16941F0E6
:101D50008051C161C06900F0805000900448416822
:101D600021F0E06141F00071416008BD00100240C7
:101D70000000014000F01F02012191404009800055
:101D800000F1E020C0F8001170470000F0B40E4BE5
:101D90001B680C46C3F30223C3F10705042D00D9C9
:101DA0000425191D072901D2002300E0DB1E0126AE
:101DB00006FA05F1491E214099409E40761E1640C4
:101DC0003143F0BC02F0D7BC0CED00E0064900F056
:101DD000070208684FF6FF03184040EA0220034A52
:101DE00010430860704700000CED00E00000FA05A9
:101DF0002DE9F84305460078354CC00754D0E0691A
:101E00000026C00008D4E06940F08050E061E0693D
:101E1000012600F0805000902E480168C90512D4B8
:101E20000168804641F480710160FFF727FC074696
:101E300005E000BFFFF722FCC01B642823D8D8F8B8
:101E40000000C005F6D5206A10F4407021D0A988A2
:101E500001F4407181421CD0206A1F49012220F404
:101E600040700A6000220A602062C00711D0FFF7AC
:101E700005FC074641F2883808E000BFFFF7FEFB8B
:101E8000C11B414502D90320BDE8F883206A8007C1
:101E9000F4D5206A696820F44070084320621EB1BE
:101EA000E06920F08050E0612878800705D56068FF
:101EB000A96820F44040084360602878C00605D532
:101EC0006068696920F48000084360600020DBE7F7
:101ED0000010024000700040400442422DE9F047EB
:101EE000DFF8548105460E46D8F8000000F00700E0
:101EF000B0420CD2D8F8001021F007013143C8F8E5
:101F00000010D8F8000000F00700B0426FD1286838
:101F10004A4C810712D5400703D5606840F4E06061
:101F200060602878000703D5606840F46050606006
:101F30006068A96820F0F000084360602878C00756
:101F400044D06868012816D02168022816D0890775
:101F500000294CDA616821F0030101436160FFF759
:101F60008DFB6968074641F2883001290ED00229AD
:101F7000814618D026E021688903E9E78901E7E76F
:101F8000FFF77CFBC11B494501D918E08146606819
:101F9000C0F381000128F3D118E000BFFFF76EFB0A
:101FA000C11B49450BD86068C0F381000228F5D1F8
:101FB0000CE000BFFFF762FBC11B494502D90320BB
:101FC000BDE8F087606810F00C0FF3D1D8F800106E
:101FD000404601F00701B1420BD9016821F0070129
:101FE00031430160006800F00700B04201D00120D9
:101FF000E6E72878400705D56068E96820F4E060E6
:10200000084360602878000706D56068296920F4D5
:10201000605040EAC100606000F036F86168084A2C
:10202000C1F30311515CC840064908600020FFF766
:1020300063FE0020C4E700000020024000100240C0
:10204000B160000874000020044805490068496830
:10205000044AC1F30221515CC8407047740000205B
:1020600000100240C1600008044805490068496842
:10207000044AC1F3C221515CC8407047740000207B
:1020800000100240C160000812A185B00FC98DE8A0
:102090000F0014A0144A006804905168134801F01E
:1020A0000C03042B10D0082B0ED1C1F38343C903BA
:1020B0001DF803000AD5516804AAC1F34041515CE0
:1020C0000A4A5043B0FBF1F005B070470849484355
:1020D000FAE7000002030405060708090A0B0C0DC5
:1020E0000E0F1010010200000010024000127A00D2
:1020F00000093D002DE9F84F04460078B94DC007AE
:1021000048D06868C0F38100012807D06868C0F330
:102110008100022809D16868C00306D528688003B9
:1021200038D5606800286FD034E06068B0F5803F33
:102130000BD010B1B0F5A02F11D0286820F480305A
:102140002860286820F4802002E0286840F480306D
:102150002860606888B1FFF791FA064609E02868B0
:1021600040F480202860F0E7FFF788FA801B64289D
:1021700075D828688003F7D50CE0FFF77FFA06468C
:1021800005E000BFFFF77AFA801B6428F0D82868C2
:102190008003F7D42078944E80074FF001094FF068
:1021A00000083BD5686810F00C0F07D06868C0F3D2
:1021B0008100022809D16868C00306D42868800716
:1021C00014D5206901281FD110E02069B0B1C6F8EC
:1021D0000090FFF753FA074605E000BFFFF74EFAFD
:1021E000C01B0228C4D828688007F7D52868616911
:1021F00020F0F80040EAC10028600FE0C6F8008037
:10220000FFF73CFA074606E0E9E000BFFFF736FAC1
:10221000C01B022823D828688007F7D4207800073D
:102220002CD57248A169D9B1C0F80090FFF726FA01
:10223000074604E0FFF722FAC01B02280FD8686A9D
:102240008007F7D56A484FF4FA510068B0FBF1F007
:10225000009000BF0098411E0091FAD20EE080E08D
:10226000C0F80080FFF70AFA074604E0FFF706FA15
:10227000C01B022875D8686A8007F7D42078400709
:1022800060D5E8690027C00008D4E86940F08050B4
:10229000E861E869012700F0805000905548016826
:1022A000C90513D40168834641F480710160FFF7CA
:1022B000E5F9824606E000BFFFF7E0F9A0EB0A006F
:1022C00064284ED8DBF80000C005F5D5E068012889
:1022D0000AD008B1052813D0286A20F0010028622E
:1022E000286A20F0040002E0286A40F00100286219
:1022F000E06841F2883B98B1FFF7C0F982460BE0F5
:10230000286A40F004002862EEE700BFFFF7B6F944
:10231000A0EB0A0159455AD8286A8007F6D50CE087
:10232000FFF7ACF9824605E0FFF7A8F9A0EB0A0138
:1023300059454CD8286A8007F6D41FB1E86920F0C7
:102340008050E861E06988B36968C1F381010229BE
:1023500045D00228C6F8608004D0FFF78FF9044604
:1023600038E034E0FFF78AF9074604E0FFF786F922
:10237000C01B02282BD828688001F7D4206AB0F54A
:10238000803F05D16868A16820F400300843686088
:10239000D4E908010843696821F4741108436860AE
:1023A000C6F86090FFF76AF9044606E015E000BF42
:1023B000FFF764F9001B022809D828688001F7D5C7
:1023C0000BE000BFFFF75AF9001B022802D90320D7
:1023D000BDE8F88F28688001F4D40020F8E70120D8
:1023E000F6E7000000100240000042428004424232
:1023F000740000200070004010B5401EB0F1807FD6
:1024000001D3012010BD4FF0E02460610F2160175F
:1024100002F0B1F90020A06107202061002010BD6A
:1024200010B590F83C20012A25D0012280F83C20EC
:10243000CA688C6822F4407222434C6822F480629D
:1024400022430C6822F4006222430C6922F4805279
:1024500022434C6922F4005222438C6922F48042C8
:10246000224322F40041026800232143516480F892
:102470003C30002010BD022010BD30B590F83C204B
:10248000012A20D0012280F83C20022380F83D3030
:1024900003685C6824F070045C6003685C680D6825
:1024A0002C435C6003689C6824F080049C60036893
:1024B0009C6849680C439C6080F83D20002180F8AE
:1024C0003C10084630BD022030BD10B5040003D0DA
:1024D00094F83D0010B107E0012010BD002084F801
:1024E0003C00204600F00CF8022084F83D00211D3D
:1024F000206802F0EDFB012084F83D00002010BDB3
:1025000008B501681148B1F1804F0BD0104A9142D3
:1025100010D1C16941F01001C161C06900F0100023
:10252000009008BDC16941F00101C161C06900F0BE
:102530000100F5E7074A9142F3D1816941F4005166
:102540008161806900F40050EAE700000010024059
:10255000001000400034014070B5044690F83C0083
:10256000012817D0012584F83C50022084F83D0052
:102570002068826822F0770222F47F428260086835
:10258000502837D00DDC202859D005DC88B310281E
:1025900041D151E0022070BD302853D040283AD1BB
:1025A0003FE060282ED070280BD0B0F5805F03D0BC
:1025B000B0F5005F2FD110E02068816821F007019D
:1025C00015E0CB68D1E90121206802F0D2FB216837
:1025D000886840F0770088601DE0CB68D1E9012170
:1025E000206802F0C6FB2068816841F48041816068
:1025F00011E01EE0CA684968206802F08FFC502193
:10260000206806E0CA684968206802F098FC6021EA
:10261000206802F0B8FB84F83D50002084F83C00AC
:1026200070BDCA684968206802F078FC40212068C3
:10263000EFE700212068ECE710212068E9E720217E
:102640002068E6E730212068E3E72DE9F0410D46F8
:10265000040003D094F83D0018B108E00120BDE863
:10266000F081002084F83C00204600F039F8022078
:1026700084F83D002068816821F007018160211DF8
:10268000206802F025FB226890689169166A2B6821
:10269000AF69034340F20330814341EA0721A86850
:1026A000EF6908434FF6FC418843E96840EA072098
:1026B000014328692F6A000140EA0730084369682E
:1026C0006D6926F0AA0646EA05152943936022683B
:1026D000906120680162012084F83D000020BEE77F
:1026E00000B585B0002100910191029103912B4B1F
:1026F00002682B492B489A421FD1CA6942F0020254
:10270000CA61CA6902F0020204928A6942F00802B0
:102710008A61896901F008010491302100916946BC
:10272000FEF7AAFE2048416821F4406141F0E061D3
:1027300041F40061416005B000BD1C4B9A4213D1C9
:10274000CA6942F00402CA61CA6902F00402049232
:102750008A6942F008028A61896901F008010491DE
:10276000C0210091694616E011488242E3D1C86950
:1027700040F00800C861C86900F00800049088694A
:1027800040F0040088618869694600F00400049004
:10279000032000900748FEF76FFECCE700040040DE
:1027A00000100240000C0140000001400008004001
:1027B000000C00400008014010B50446006891B1CB
:1027C000042904D00122002102F0C8FA2068012265
:1027D0005FF0040102F0C2FA2068016841F00101D3
:1027E0000160002010BD01220021F3E700B585B093
:1027F0000021009101910291039102681A4802217F
:10280000B2F1804F15D0194B9A4210D1826942F033
:10281000100282618069039100F0100004904FF46F
:102820007070CDE9000169461148FEF725FE05B03C
:1028300000BD826942F0080282618069039100F064
:10284000080004904FF48060CDE900016946094812
:10285000FEF712FE0848416821F4407141F0E06142
:1028600041F400714160E2E7001002400034014091
:1028700000100140000C01400000014070B504460A
:1028800090F83C000D4601280DD0012684F83C60EC
:10289000022084F83D0042B1042A18D0082A2AD028
:1028A0000C2A4DD139E0022070BD206802F074FA84
:1028B0002068816941F0080181612068816921F007
:1028C00004018161206881692A69114311E020684F
:1028D00002F092FA2068816941F400618161206808
:1028E000816921F480618161206881692A6941EAF6
:1028F0000221816124E0206802F0B4FA2068C169F5
:1029000041F00801C1612068C16921F00401C16181
:102910002068C1692A69114311E0206802F0D6FAE3
:102920002068C16941F40061C1612068C16921F476
:102930008061C1612068C1692A6941EA0221C161DF
:1029400084F83D60002084F83C0070BD10B50400A0
:1029500003D094F83D0010B107E0012010BD002025
:1029600084F83C00204600F00CF8022084F83D007A
:10297000211D206802F0ACF9012084F83D00002000
:1029800010BD704710B504460068012202F0E6F958
:1029900008492068884202D00749884203D1416C27
:1029A00041F4004141642068016841F00101016087
:1029B000002010BD002C014000340140704770B56C
:1029C000040004D094F83900002510B106E001207D
:1029D00070BD84F83850204600F022F8242084F896
:1029E00039002068C16821F40051C160204602F01E
:1029F00017FB2068016921F4904101612068416959
:102A000021F02A0141612068C16841F40051C16090
:102A1000E563202084F8390084F83A00002070BD76
:102A2000F0B585B000240646009401940294039406
:102A30000068284988424AD12748C16941F40031D9
:102A4000C161C16901F400310491816941F004015F
:102A500081618069214D00F0040004900420009001
:102A6000022001900320039069462846FEF704FDEA
:102A70000820CDE900040120029069462846FEF7AF
:102A8000FBFC184D16488027C5E90004C5E902473C
:102A90002C616C61AC612846EC61FEF765FC08B105
:102AA000FEF740F875636E620D480F4D143001C596
:102AB000102091C50C4845F810496C61AC61EC617F
:102AC000FEF752FC08B1FEF72DF835636E6205B0D3
:102AD000F0BD00000044004000100240000801402A
:102AE0006C0002408C030020D0030020F8B504469F
:102AF00090F83A0020283CD1C1B3BAB394F838001A
:102B0000012836D0012084F83800A162A285002572
:102B1000E563222084F83A00636B17489862636B80
:102B20001648D862636B16481863606B134645639A
:102B30000846666B216802463046091DFEF752FCC6
:102B4000206801684168009184F83850C16841F4F8
:102B50008071C1602068416941F0010141612068D4
:102B6000416941F0400141610020F8BDFFE70120CB
:102B7000FBE70220F9E70000AD4F0008E94F00082D
:102B8000634F0008094988420DD10948017801299D
:102B900003D0032907D1042104E006490978FF295D
:102BA00002D00021017070470221FBE74C03002096
:102BB0005A000020910000207047FEE70148FEF710
:102BC00065BD00007801002017B583B00A240123F9
:102BD00005AA8DE81C000A4601460248FEF792FF4E
:102BE00006B010BD7801002010B5406A01680A687F
:102BF00022F480620A6000214185426B5163826B3E
:102C0000516390F83D302022602B80F83D2080F801
:102C10003E1007D001680A6822F001020A60FEF740
:102C20002DFE10BD016401680A6822F001020A60ED
:102C3000FEF72AFD10BD000070B590F83D10044667
:102C400000252026006829292DD02A292BD094F888
:102C50003D10602904D04168090501D484F83D6025
:102C6000256384F83E50016821F40061016020680A
:102C70004168090537D5416821F400614160606B06
:102C8000344990F82120012A12D04163606BFEF78D
:102C9000AFF938B32068016821F00101016084F8C0
:102CA0003D60606B1CE02563282184F83D10DAE765
:102CB000A06B4163A06BFEF79BF998B12068416956
:102CC000C943490604D40169606A421C626201700A
:102CD0002068016821F00101016084F83D60A06B6B
:102CE000416B88470FE094F83D1060291DD0416981
:102CF000C943490604D40169606A421C62620170DA
:102D00002046FEF7BBFD94F83D0028280CD1206C2E
:102D1000400709D51048E062256384F83D6084F8D7
:102D20003E502046FEF74CFE70BD84F83D602564A1
:102D30004169C943490604D40169606A421C626260
:102D400001702068016821F0010101602046FEF752
:102D50009BFCD8E7E92B00080000FFFF01684A69E7
:102D6000D24352050CD46FF480624A61042101649D
:102D7000002140F8301F2022427301730120704768
:102D80000020704710B5C26A448D2F4B0168032C98
:102D900003D0448D022C15D00AE0042A03D0082A5F
:102DA00001D09A4203D10A6822F480620A60016865
:102DB0000A69416A4B1C43620A70418D491E418574
:102DC000002010BD042A12D0082A10D09A420ED03A
:102DD000022A0A6802D022F4806201E042F4806292
:102DE0000A6001684A6822F440724A6008E04A6852
:102DF00022F440724A6001680A6842F400720A6074
:102E000001680A69416A4B1C43620A70418D491E80
:102E1000418501680A69416A4B1C43620A70418D11
:102E2000491E4185202180F83D100021016390F862
:102E30003E2080F83E10402A02D0FEF7C2FDBFE7D8
:102E4000FEF75EFEBCE700000000FFFF10B590F843
:102E50003D1022294CD1418D032909D901680A6905
:102E6000416A4B1C43620A70418D491E41853FE017
:102E7000022909D0032907D0C16A022901680A681A
:102E800018D022F4806217E0C16A022901680A683A
:102E900007D022F480620A6001680A6842F4006286
:102EA00001E042F480620A600068416821F48061B8
:102EB00041601DE042F480620A6001684A6822F4C1
:102EC000E0624A6001680A69416A4B1C43620A7009
:102ED000418D491E4185202180F83D10002101636C
:102EE00090F83E2080F83E10402A03D0FEF769FD9E
:102EF000002010BDFEF704FEFAE70000F8B5044616
:102F0000C06A1E460D461746042807D0012805D082
:102F100010F5803F02D0206B122804D12068016890
:102F200041F480710160134600224FF001112046E8
:102F3000009600F090FAA0B92069B0F5804F12D049
:102F40000620216800EAD51040F0F0000861334601
:102F50003A460E49204600F0AFFA38B1206C0428FA
:102F600011D00320F8BD05F0FE0000E0E8B22168B2
:102F70000861064933463A46891F204600F09CFA0C
:102F80000028EBD1F8BD0120F8BD000008000100C9
:102F900010B5C26A90F83D10212921D1418D49B167
:102FA000416A4A1C4262026809781161418D491EDA
:102FB000418515E020230021042A13D0082A11D0CE
:102FC00012F5803F0ED00268546824F4E064546027
:102FD0001122026380F83E1080F83D30FEF7F2FCCB
:102FE000002010BD0268546824F4E0645460026854
:102FF000146844F400741460016380F83D3090F864
:103000003E2080F83E10402AE8D1FEF77AFDE7E73F
:1030100010B590F83D1090F83E30C26A048D24B18E
:10302000212934D0402B30D074E02129FAD120233B
:103030000021042A13D0082A11D012F5803F0ED0A7
:103040000268546824F4E06454601122026380F83A
:103050003E1080F83D3000BFFEF7B4FC5AE0026835
:10306000546824F4E06454600268146844F4007402
:103070001460016380F83D3090F83E2080F83E10E7
:10308000402AE9D1FEF73DFD44E0222942D1418D9D
:1030900021B190F83E10402906D032E00068416826
:1030A00021F48061416035E0016D31B1016D01298C
:1030B00011D0016D022915D02CE0C16C0129816C61
:1030C00002D0C1F3072108E00268C9B21161016DA5
:1030D000891C01651EE0816CC9B202681161016D35
:1030E000491CF6E790F83D10222904D090F83D10D5
:1030F000212906D00EE00068016841F4807101606A
:1031000008E0416A4A1C4262026809781161418DF7
:10311000491E4185002010BD78B590F83E50C26A26
:10312000046B90F83D6000230168222E06D1066DE5
:103130000EB9402D02D0056D25B107E048698869B8
:1031400000901CE00569B5F5404F1AD0458D85B358
:10315000458D012D20D0428D022A4AD00A6842F4C2
:1031600080620A6001684A68120503D54A6842F421
:1031700080524A6001684A698969009103650020AC
:1031800078BD4A698A6900920A6842F480720A60CE
:10319000016D491C0165F2E712F5803F0AD0042A4F
:1031A00021D0082A1FD0122C1DD0C26A022A09D1B0
:1031B00014E00BE00A6822F480620A6001684A6841
:1031C000120503D50A6822F480620AE04A698A6916
:1031D00000920A6842F400720A60CFE70A6842F47B
:1031E00080620A60C6E70A6822F480620A600168A9
:1031F000ECE7C26A022A0A680BD042F400620A6055
:1032000001684A698A6900920A6822F480620A6049
:1032100006E042F480620A6001684A6989690091A7
:1032200001684A681205A9D54A6842F480524A608A
:10323000A4E790F83E10402909D00169B1F5804F0C
:1032400010D0016D99B1016D012915D01CE0016DFF
:1032500019B9416C01F0FE0114E0416CC9B241F0B2
:1032600001010FE090F83D102129F6D1F1E7416C02
:10327000F02201F4407103E0416CF12201F440714D
:1032800042EAD11100680161002070472DE9F8433E
:10329000044600680D46DDE9089701689846164621
:1032A00041F4807101604B4600224FF0011120462D
:1032B000009700F0D0F8E8B9216805F0FE00086139
:1032C0003B464A461849204600F0F6F828B1206CE3
:1032D00004280FD10120BDE8F88320684169806986
:1032E00000903A464946204600F02AF920B1206C69
:1032F000042813D00320EEE7F5B2B8F1010F09D08E
:103300002168300A08613A464946204600F018F91B
:103310000028ECD1206805610020DCE72068016806
:1033200041F400710160D5E70200010038B590F862
:103330003D2001684B6823F4E0634B600368002183
:103340005C6900941C6844F001041C6003681C68FC
:1033500024F480641C6003685C6824050BD590F835
:103360003D40222C2BD090F83D402A2C27D0446B96
:10337000246864684485448DE4B15C69E44364076F
:1033800007D41C69436A5D1C45621C70438D5B1E3B
:10339000438503685C69E443640607D41C69436A97
:1033A0005D1C45621C70438D5B1E4385036C43F0BE
:1033B00004030364036C23B1FFF73EFC1FE0846B3E
:1033C000D6E72023282A09D02A2A07D0292A05D07F
:1033D000046B222C0CD0222A0AD010E0094AC262C7
:1033E000016380F83D3080F83E10FEF7E9FA06E010
:1033F000016380F83D3080F83E10FEF761FC00204C
:1034000038BD00000000FFFF70B516460D460446AB
:103410001AE02046FFF7A2FC08B1012070BD681C2D
:1034200012D025B1FEF72AF9801BA8420CD954F816
:10343000400F40F0200044F81009002020602021B7
:1034400061732073032070BD20684069C04340074A
:10345000DFD4002070BD2DE9F0471E4690460D4692
:103460000446C1F30747DDF8209012E0701C10D02D
:103470002EB1FEF703F9A0EB0900B04209D90020F4
:1034800044F8300F20216173A07320730320BDE83E
:10349000F0872068012F0AD0806925EA0000000427
:1034A000000C06D000214145E0D00020EFE7406944
:1034B000F3E70121F7E700002DE9F0479A4691462E
:1034C0000D46044600264FF02008C1F307472AE0C6
:1034D00020684069C043400512D42068016841F467
:1034E0000071016021686FF48060486104202064ED
:1034F000266384F83D8084F83C600120BDE8F087B5
:10350000B9F1FF3F0FD0B9F1000F05D0FEF7B6F8C3
:10351000A0EB0A01494506D944F8306F84F80D80C4
:1035200026730320EAE72068012F07D0D0F818009F
:1035300025EA00000004000CE0D0C9E74069F7E785
:1035400070B516460D4604461AE02046FFF706FC05
:1035500008B1012070BD681C12D025B1FEF78EF8AD
:10356000801BA8420CD954F8400F40F0200044F8CA
:10357000100900202060202161732073032070BD9A
:1035800020684069C0430006DFD4002070BD10B53C
:1035900000226B21D020FFF717FB07221921D02032
:1035A000FFF712FB06221A21D020FFF70DFB18228D
:1035B0001B21D020FFF708FB01221C21D020FFF7A0
:1035C00003FB02223721D020FFF7FEFA0A20FDF785
:1035D00041FF06220A211820FFF7F6FABDE8104045
:1035E0000A20FDF737BF0000044908B58A69024385
:1035F0008A6189690140009108BD00000010024005
:10360000F0B50A68C2F30F2595FAA5F2B2FA82F373
:1036100069E001229A402A4264D0082B03D240F28A
:1036200001129A4006E0A3F108024FF00114944001
:1036300044F0806292FAA2F700EB1264B7FA87F7BF
:103640004FEA870C0F27266807FA0CF7BE4392FA59
:10365000A2F7D1F804E0B7FA87F7BF000EFA07FE29
:1036600046EA0E0626600E69C7684FEA122C9CFADD
:10367000ACFCBCFA8CFC27EA122706FA0CF637439E
:10368000C7604E68012E01D0092E2BD192FAA2F705
:10369000B7FA87F74FEA870C032707FA0CF7266873
:1036A000D1F808E0BE4392FAA2F7B7FA87F7BF0055
:1036B0000EFA07FE92FAA2FC46EA0E06BCFA8CFC51
:1036C0004FEA8C0E4FF0040C26600CFA0EFC92FAB6
:1036D000A2F2B2FA82F2CF68920026EA0C06974074
:1036E0003E4326605B1C35FA03F292D10120F0BD07
:1036F00030B591FAA1F400EB1160B4FA84F4A5009E
:103700000F24AC4091FAA1F10368B1FA81F189006C
:10371000A3438A401343036030BD0A7B8B681A437E
:103720004B6822F480621A430B6822F400621A4349
:10373000CB8922F480521A430B6922F400521A43B7
:103740004B6922F480421A4322F400411943416438
:1037500001207047F0B502681C4B1D4D1D4E1E4FD9
:103760001E4C4FF0804C984209D0A04207D06045D3
:1037700005D0A84203D0B04201D0B84205D1D1F85B
:1037800004E022F0700242EA0E02984209D0A04200
:1037900007D0604505D0A84203D0B04201D0B8425E
:1037A00003D1CD6822F440722A4302608A68C26263
:1037B0000A888262984201D0A04201D1097C01634B
:1037C000416941F0010141610120F0BD002C01403F
:1037D0000004004000080040000C0040003401409C
:1037E000012919D0042919D0102919D0402919D03C
:1037F000B1F5807F18D0B1F5806F17D006210C4A43
:1038000018300B4B525CDB1D10445B5C04210268DA
:1038100099408A43026070470021F0E70121EEE7FA
:103820000221ECE70321EAE70421E8E70521E6E7C6
:10383000A3600008012919D0042919D0102919D032
:10384000402919D0B1F5807F18D0B1F5806F17D01D
:1038500006210C4A18300B4B525CDB1D10445B5C9C
:103860000821026899400A43026070470021F0E78E
:103870000121EEE70221ECE70321EAE70421E8E772
:103880000521E6E7A3600008F0B5002601236E4C91
:103890006E4D012908D010293BD0B1F5807F73D03F
:1038A000B1F5805F6ED1A6E0016A21F001010162ED
:1038B000016A46688769D2F800C027F0730747EAB3
:1038C0000C07D2F810C021F0020141EA0C01D2F835
:1038D00004C021F0010141EA0C01A04201D0A8423C
:1038E00012D1546921F0080141EA8401946821F061
:1038F000040141EA8401956926F480742C43D5695A
:1039000024F4007444EA450646608761D268426345
:103910006FE0016A21F010010162066A416887695F
:10392000D2F800C027F4E64747EA0C27D2F810C0C7
:1039300026F0200646EA0C16D2F804C026F010063F
:1039400046EA0C16A04201D0A84213D1556926F0D0
:10395000800444EA8514956824F0400444EA8516FE
:10396000946921F4806141EA8401D46921F4006101
:1039700041EAC40141608761D168816361E003E08D
:1039800000E01E463046F0BD016A21F480710162FC
:10399000016A4668C769D2F800C027F0730747EA92
:1039A0000C07D2F810C021F4007141EA0C21D2F8C2
:1039B00004C021F4807141EA0C21A04201D0A84248
:1039C00013D1546921F4006141EA8421946821F4FF
:1039D000806141EA8421956926F4805444EA051403
:1039E000D56924F4005444EA45164660C761D2689C
:1039F000C2630162C5E7016A21F480510162066A6F
:103A00004168C769D2F800C027F4E64747EA0C27A7
:103A1000D2F810C026F4005646EA0C36D2F804C09C
:103A200026F4805646EA0C36A04201D0A84204D1C2
:103A3000946921F4804141EA84114160C761D168F1
:103A4000016406629DE70000002C01400034014043
:103A500010B5012916D0042916D0102916D04029F6
:103A600016D0B1F5807F15D0B1F5806F14D0062344
:103A7000016A0A4CE35C02249C40A1439A40114332
:103A8000016210BD0023F3E70123F1E70223EFE712
:103A90000323EDE70423EBE70523E9E78458000857
:103AA00070B50A4C208800280FD0FDF7E7FD0546C9
:103AB000A068854209D304210548FDF7D6FD20887A
:103AC000401E208060682844A06070BD0000002077
:103AD000001401403EB50024104800940194029463
:103AE0008460C4600C4944610160012505614FF4A4
:103AF00060214460C161FDF74FF900B1FEE7042089
:103B0000CDE90005694602940448FDF73DF8002818
:103B100000D0FEE73EBD0000002401404801002027
:103B20002DE9F04F85B0002462480094019402947E
:103B30000394816941F010018161816901F01001F4
:103B40000491816941F020018161816901F02001C6
:103B50000491816941F004018161816901F00401EE
:103B60000491816941F0080181618069DFF848A111
:103B700000F008000490002248F211015046FDF7C1
:103B800078FD012204215046FDF773FD0122A0219A
:103B90004A48FDF76EFDDFF828B141F20309002223
:103BA00049465846FDF765FD002204214548FDF7CA
:103BB00060FD48F2100001254FF00308CDE9000533
:103BC000CDE9024869465046FDF756FC052002261D
:103BD000CDE90005CDE9024669465046FDF74CFCAB
:103BE000394F0096CDE9017469465046FDF744FC13
:103BF0004FF481608DE8310069465046FDF73CFC8A
:103C0000A020CDE90005CDE9024869462B48FDF723
:103C100033FC4020CDE90004694628480294FDF7B2
:103C20002BFCCDF800900396CDE901546946584627
:103C3000FDF722FC4FF00408CDF80080CDE90174B7
:103C400069465846FDF718FC280300901F48CDE947
:103C5000010569461948FDF70FFCE803CDE90007A7
:103C6000694602941548FDF707FCCDF800800396DD
:103C7000CDE9015469461348FDF7FEFB00220121FE
:103C80000720FEF783F80720FEF774F8002211469C
:103C90000820FEF77BF80820FEF76CF800220521CB
:103CA0002820FEF773F82820FEF764F805B0BDE879
:103CB000F08F000000100240001001400008014099
:103CC000000C0140001401400000311000001110F0
:103CD000F0B599B0142113A8FCF75DFA20216846CD
:103CE000FCF759FA18210DA8FCF755FA142108A879
:103CF000FCF751FA4FF40060FFF776FC002440F225
:103D0000E730CDE91440454D0326ADF84C601694DC
:103D10008DF85C4013A92846FFF71CFD286840F089
:103D200080002860A86844F207018843A860012148
:103D30002846FFF77FFD6020CDE9000402200294B1
:103D40000394C7010494CDE905076A46012128467A
:103D50000797FFF799FD01212846FFF741FD102144
:103D60002846FFF767FD01946A4610212846029411
:103D7000FFF78AFD10212846FFF732FD3946284615
:103D8000FFF758FD01946A46394628460294FFF72A
:103D90007BFD39462846FFF723FDAF1439462846F8
:103DA000FFF748FD029401946A4639462846079475
:103DB000FFF76AFD39462846FFF712FD686820F0D4
:103DC00070006860A86820F08000A8608DF840400E
:103DD0000D940E940F94ADF842406814CDE911048F
:103DE0000DA92846FFF799FC0820FFF7FDFB0420EA
:103DF000FFF7FAFB0A4808A909250B9481E861003E
:103E00000848FFF7FDFB084808A90B9481E861000A
:103E10000648FFF7F5FB19B0F0BD0000002C01408B
:103E2000E000E004000C01400F000F040008014016
:103E300010B58EB000240794089409940A940B944A
:103E40001C2168460C94FCF7A6F91D484FF08041F0
:103E500001604721C0E9011444F61F61C0E9031461
:103E600080218161FEF731FB00B1FEE74FF4805005
:103E7000079007A91248FEF76FFB00B1FEE7104854
:103E8000FEF764FD00B1FEE70B940BA90C480C94FF
:103E9000FEF7F3FA00B1FEE76020009040F2DC503C
:103EA000CDE901040822694605480494FEF7E6FCC2
:103EB00000B1FEE70248FEF799FC0EB010BD00000D
:103EC000CC01002010B58CB024216846FCF763F9C2
:103ED00000241548099413490A94C0E900144FF6C8
:103EE000FF71C0E90241046184610320CDE900044F
:103EF0000120CDE902040494CDE905400794694608
:103F000009480894FEF7A1FB00B1FEE7099409A94E
:103F100005480A94FEF7B1FA002800D0FEE70CB07D
:103F200010BD0000000400400C02002010B58CB051
:103F300024216846FCF72FF90024154809941349F9
:103F40000A94C0E900144FF6FF71C0E90241046110
:103F500084610320CDE900040120CDE9020404942A
:103F6000CDE905400794694609480894FEF76DFBC2
:103F700000B1FEE7099409A905480A94FEF77DFA05
:103F8000002800D0FEE70CB010BD00000008004083
:103F90004C02002010B58CB024216846FCF7FBF8D9
:103FA00000241548099413490A94C0E900144FF6F7
:103FB000FF71C0E90241046184610320CDE900047E
:103FC0000120CDE902040494CDE905400794694637
:103FD00009480894FEF739FB00B1FEE7099409A9E6
:103FE00005480A94FEF749FA002800D0FEE70CB015
:103FF00010BD0000000C00408C02002010B594B0F1
:1040000000240E940F941094119412941C2168466D
:104010001394FCF7C0F81C2107A8FCF7BCF8314842
:104020002F4901604721C0E9011444F61F61C0E92E
:1040300003148021C0E90541FEF747FA00B1FEE70D
:104040004FF480500E900EA92648FEF785FA00B175
:10405000FEE72448FEF77AFC00B1FEE7129412A9AD
:1040600020481394FEF709FA00B1FEE760200090A3
:1040700040F2DC50CDE9010403940494059400223D
:10408000694618480694FEF7F9FB00B1FEE70422E2
:1040900069461448FEF7F2FB00B1FEE708226946C4
:1040A0001048FEF7EBFB00B1FEE70C2269460D4815
:1040B000FEF7E4FB00B1FEE70794089409944FF47F
:1040C00000500A94CDE90B4007A906480D94FEF76D
:1040D000A7F900B1FEE70348FEF788FB14B010BD56
:1040E000003401400C030020FEE700002DE9F0033E
:1040F0000025DFF84090DDF818C02E464FF47A789E
:1041000005EB850401EBC4046D1C6768266114345B
:10411000EDB2A4E80C10042D44E90676C4E9008948
:10412000EED30221C17001218170BDE8F00301F0DE
:10413000A5BA000000409C4670B5194D04464FF4E6
:1041400080502861184E092216493046FFF7D0FAF0
:10415000092216493046FFF7CBFA092214493046A6
:10416000FFF7C6FA092213493046FFF7C1FA0922C0
:1041700011492846FFF7BCFA092210492846FFF7E3
:10418000B7FA09220E492846FFF7B2FA0D48416CEA
:1041900021F40041416400202070607070BD000077
:1041A000000C01400100010400080140020002046B
:1041B0000400040408000804200020044000400417
:1041C00080008004002C01402DE9F04F0646007865
:1041D00085B00F4600287CD0B078DFF804846C46A8
:1041E000F0B3FDF74BFAFF4981464A68904270D31D
:1041F0000025FC494968A9EB0100F1780844FCF767
:10420000BFF905EB850A07EBCA048346D4E901012F
:10421000401AFCF7ACF95946FCF752F8FCF7CEF916
:104220000022F14BFCF731F98346049157F83A002C
:10423000FCF79DF9FCF7C2F9EC4AED4BFCF725F9C8
:104240005A46049BFCF71BF9FCF7CBF9DFF8A4A353
:1042500001464AF825002069FBF7A8FF206100E02D
:1042600005E0616AFCF7DAF97ED2616A72E1707882
:1042700000282ED05FF0000000EB800157F83110CD
:10428000494244F82010401CC0B20428F4D34FF433
:1042900000570398FD10002800984FF4804A4FF40F
:1042A000007B4FF480797ADB002813DB02220421A3
:1042B000D148FFF7CDFBD248D049C0F81490012275
:1042C000FFF716FA0922CF494046FFF711FA009886
:1042D00015E03BE100220121C748FFF7B9FB444646
:1042E000C8F814700922C549C548FFF701FA012230
:1042F000C4492046FFF7FCF90098404200904FF473
:104300007A77B84200DD3846BB4C00906063019874
:10431000002814DB002210212046FFF799FBDFF86C
:10432000E8B2C8F814A00922B849B548FFF7E0F987
:10433000012259464046FFF7DBF9019813E00222BB
:1043400040212046FFF784FBAD48B049C0F814B0C7
:104350000122FFF7CDF90922AB494046FFF7C8F922
:1043600001984042019000E0F3E0B84200DD384699
:104370000190A0630298002812DB02222946204601
:10438000FFF766FB9E48A24945610122FFF7B0F99D
:104390000922A0494046FFF7ABF9029819E02DE049
:1043A000002249462046FFF753FBDFF868924FF49E
:1043B00000404546C8F81400092295499048FFF787
:1043C00097F9012249462846FFF792F902984042A0
:1043D0000290B84200DD3846014602902046E16373
:1043E0004FF48051C8F814100022FFF731FB0398F6
:1043F000B84200DC074603972764A5E0002813DBDA
:10440000022201217C48FFF723FB4446C8F81070C4
:1044100009227A497A48FFF76BF901227949204647
:10442000FFF766F9009813E0002204217248FFF7B5
:104430000FFB73487149C0F810900122FFF758F93B
:10444000092270494046FFF753F900984042009016
:104450004FF47A74A04200DD2046674F00907863E5
:104460000198002812DB002240213846FFF7F0FABD
:1044700063486649C0F810B00122FFF739F90922F4
:1044800061494046FFF734F9019815E002221021F6
:104490003846FFF7DDFADFF870B1C8F810A009223E
:1044A0005A495748FFF724F9012259464046FFF779
:1044B0001FF9019840420190A04200DD2046019082
:1044C000B8630298002817DB022249463846FFF7F6
:1044D000BFFADFF840914FF400404546C8F810009D
:1044E00009224B494648FFF703F90122494628466D
:1044F000FFF7FEF8029812E0002229463846FFF73F
:10450000A7FA3F48424905610122FFF7F1F8092265
:1045100040494046FFF7ECF8029840420290A04222
:1045200000DD2046014602903846F9634FF4805181
:10453000C8F810100222FFF78BFA0398A04200DCA3
:1045400004466042039438640020707005B0BDE8F2
:10455000F08F21692161606A80F00040FCF75EF80D
:1045600003D2606A80F0004000E020692061616849
:10457000A160A169FBF772FE83465AF825006169C4
:104580008246FBF76BFE5946FBF710FE8346514609
:10459000E068FBF75DFEE169FBF760FE5946FBF75B
:1045A00057FEFBF7F2FF4DF82500C4F80CA05DF8AC
:1045B0002520206A6946824200DC104641F8250029
:1045C000226A5242904200DA104641F825006D1CE2
:1045D000EDB2042DFFF40DAEF178024849441BE022
:1045E000000C01400C00002000408F40A4703D0AE8
:1045F000D7A3084078000020002C014001000104EE
:104600000008014020002004400040040200020491
:1046100004000404800080044160009800280BDB43
:1046200001223E493E48FFF763F809223D494046D2
:10463000FFF75EF800980CE0092238493848FFF788
:1046400057F8012237494046FFF752F80098404298
:1046500000904FF47A74A04200DD2046324D009065
:104660006863019800280BDB092230492C48FFF7CA
:104670003FF801222E494046FFF73AF801980CE036
:1046800001222A492648FFF733F8092228494046E3
:10469000FFF72EF8019840420190A04200DD20462D
:1046A0000190A863029800280BDB012221491C48D5
:1046B000FFF71EF8092220494046FFF719F8029833
:1046C0000CE009221B491648FFF712F801221A498B
:1046D0004046FFF70DF8029840420290A04200DDEC
:1046E00020460290E86303984FF48051002840462A
:1046F00006DB416100222846FFF7AAF9039807E08C
:10470000016102222846FFF7A3F903984042039073
:10471000A04200DC044603942C6417E70100010466
:104720000008014020002004002C01400200020487
:1047300040004004040004048000800470B50B4C69
:104740002078002810D0FCF799FF616888420BD3CD
:10475000074D01222A616923002100BF491C9942AB
:10476000FBD36A613C30606070BD00003C000020FB
:104770000010014070470907090E002806DA00F012
:104780000F0000F1E02080F8141D704700F1E020D8
:1047900080F80014704770B50024002104F1B000C7
:1047A00000F000F90021084600F0FCF8002110207C
:1047B00000F0F8F800250121002000F0F3F86D1C4E
:1047C000EDB2802DF7D3641CE4B2082CE5D370BDA4
:1047D00010B5FA20FCF73EFE0021AE2000F0E2F812
:1047E00008B1FF2010BD0021084600F0DBF80021D1
:1047F000102000F0D7F80021402000F0D3F800216D
:10480000B02000F0CFF80021812000F0CBF800218B
:10481000FF2000F0C7F80021A12000F0C3F800211C
:10482000A62000F0BFF80021A82000F0BBF800216E
:104830003F2000F0B7F80021C82000F0B3F80021B5
:10484000D32000F0AFF80021084600F0ABF80021BB
:10485000D52000F0A7F80021802000F0A3F8002167
:10486000D82000F09FF80021052000F09BF80021DF
:10487000D92000F097F80021F12000F093F80021F2
:10488000DA2000F08FF80021122000F08BF80021D0
:10489000DB2000F087F80021302000F083F80021B1
:1048A0008D2000F07FF80021142000F07BF800211B
:1048B000AF2000F077F8002010BD10B50A4604467E
:1048C000002102F1B00000F06DF8102040EA141051
:1048D000002100F067F804F00F00BDE8104000214F
:1048E00000F060B82DE9F041203A00240D468046E2
:1048F000D6B27F2803D900208D1C8046EDB2102B44
:10490000294610D0FFF7D9FF164906EB460001EB08
:1049100040050121285D00F045F8641CE4B2062C36
:10492000F7D3BDE8F081FFF7C8FF0F4F04EB061087
:104930000121385C00F036F8641CE4B2082CF5D391
:104940006D1CE9B24046FFF7B8FF002404EB0610E7
:1049500038440121007A00F025F8641CE4B2082CE8
:10496000F4D3DEE78B580008B35A00082DE9F04174
:10497000984617460E46044600250DE0434631464C
:104980002046FFF7AFFF0834E4B2782C02D90024A8
:10499000B61CF6B26D1CEDB27A5D002AEED1BDE810
:1049A000F08100007CB5FF240A22002519B109A17D
:1049B0000968019100E001958DF80500009202233D
:1049C00001AA78210448FCF7FFFF08B120467CBD0E
:1049D00028467CBD40000000780100202DE9F05FF2
:1049E00025494FF0040BC1F814B0012000F0E4FE9B
:1049F000DFF8888000244FF020094FF0800A20481B
:104A000000254146065DF00750460FD0086100279B
:104A10006D087608C8F81490012000F0CDFE402102
:104A20004046FCF71DFE012802D003E04861EEE796
:104A300045F08005472000F0BFFE4046C8F81090C2
:104A4000F107514615D001614A2000F0B5FE7F1CE8
:104A5000FFB2082FDCD30B480555462000F0ACFE12
:104A6000641CE4B2092CCAD30349C1F810B0BDE8F4
:104A7000F09F4161E8E7000000100140000801409C
:104A80002000002088000020704700002DE9F04140
:104A90001646FCF7F3FD3F4907468A68904276D9EF
:104AA00008788846002872D1FFF798FF3A4D687859
:104AB000732869D1A8785A2866D1364CE87815341D
:104AC000C0F34001A170C0F38001E170C0F3001198
:104AD0006171C0F34011A171C0F38011E171C0098F
:104AE000207228790A2300F00101C0F340026172AC
:104AF000A272C0F3800C84F80BC0C0F3C000207316
:104B0000A4F113026046FBF70AFFB8F80210012077
:104B100000F048F8E17960790A23A4F11102FBF76B
:104B2000FEFEB8F80410022000F03CF8A179207ACB
:104B30000A23A4F10F02FBF7F2FEB8F806100320D7
:104B400000F030F8E879154A02EBC000F080297ACD
:104B500002EBC1014942B1806B7902EBC30200F163
:104B60000A033281142B00D80020F08001F10A00E2
:104B7000142800D8002102F10A00B180142800D8BE
:104B8000002232810120B0720A37C8F80870BDE8EF
:104B9000F0810000140000208800002001FCFFFFCD
:104BA0007047000040F6C412914203D84FF4FA72E5
:104BB000914200D2114606280FD2DFE800F00E0322
:104BC00005080B0F074807E00648001D04E00548EC
:104BD000083001E003480C30016070474FF080401E
:104BE000C163704734340140054B04225A614FF6CB
:104BF000FF7202EA400203484908028041607047A0
:104C00000014014000000020FDF75CB830B595B0FD
:104C100028216846FBF7BFFA14210AA8FBF7BBFA64
:104C200018210FA8FBF7B7FA0920012100904FF4D3
:104C30008030002504910691CDE901050224CDE9DB
:104C400007404FF4E01009906846FDF753FA00B1B1
:104C5000FEE70AA90F2081E831004FF48060CDE91A
:104C60000D0502210AA8FDF739F900B1FEE74FF45E
:104C7000004011900F940FA8FDF7BAF8002800D05B
:104C8000FEE715B030BD00000D48016841F001019C
:104C9000016041680B4A1140416001680A4A1140B5
:104CA0000160016821F480210160416821F4FE0166
:104CB00041604FF41F0181600449C00308607047E0
:104CC000001002400000FFF8FFFFF6FE08ED00E0D4
:104CD000F0B502681C4B1D4D1D4E1E4F1E4C4FF073
:104CE000804C984209D0A04207D0604505D0A84228
:104CF00003D0B04201D0B84204D122F0700E4A680D
:104D000042EA0E02984209D0A04207D0604505D081
:104D1000A84203D0B04201D0B84203D122F440757A
:104D2000CA682A4322F080054A692A4302608A68D9
:104D3000C2620A688262984201D0A04201D1096928
:104D4000016301214161F0BD002C014000040040DD
:104D500000080040000C00400034014010B5012361
:104D6000046A8B409C430462036A8A4013430362D3
:104D700010BD10B5846842EA032224F47F440A433C
:104D80002243826010BD826822F070020A4342F022
:104D90000701816070470000F0B5026A22F001024D
:104DA0000262036A42688469124E24F073050C683B
:104DB0002C4323F002058B682B430D4DA84201D0F4
:104DC000B04205D123F00807CB683B4323F004032E
:104DD000A84201D0B04205D14D6922F4407215437A
:104DE0008A692A4342608461496841630362F0BD75
:104DF000002C014000340140F0B5026A22F010029C
:104E00000262026A436884690D6824F4E64444EA55
:104E100005248D6822F0200242EA05120F4D104E43
:104E2000A84201D0B04206D1CF6822F0800242EA07
:104E3000071222F04002A84201D0B04207D14D69CA
:104E400023F4406343EA85038D6943EA85034360A5
:104E50008461496881630262F0BD0000002C01405A
:104E600000340140F0B5026A22F480720262026AE4
:104E70004368C46922F4007224F073050C68124E72
:104E80002C438D6842EA05220E4DA84201D0B04263
:104E900006D1CF6822F4006242EA072222F480623F
:104EA000A84201D0B04207D14D6923F4405343EAF0
:104EB00005138D6943EA05134360C4614968C16302
:104EC0000262F0BD002C01400034014030B5026A9E
:104ED00022F480520262046A4268C3690D6823F4B6
:104EE000E64343EA05238D6824F4005444EA05347C
:104EF000084DA84202D0084DA84204D14D6922F4C1
:104F0000804242EA85124260C361496801640462DA
:104F100030BD0000002C01400034014010B5036A90
:104F2000046A24F001040462846924F0F00444EA71
:104F3000021423F00A020A438461026210BD10B514
:104F4000036A23F0100303628369046A23F4704345
:104F500043EA023224F0A00343EA011182610162B4
:104F600010BD70B5446A2068406994F83910C0F3E8
:104F7000C0100025212904D118B1E584204600F095
:104F800046F82068406994F83A10C0F3801022294E
:104F900004D118B1E585204600F02BF8E06B40F015
:104FA0001000E0632046FDF709FD70BD10B5014615
:104FB000406A09680968890613D40021C18501681F
:104FC000CA6822F48072CA6001684A6922F001024C
:104FD0004A6101684A6922F040024A61202180F852
:104FE0003A10FDF7CFFD10BD10B5406AFDF7E4FDA6
:104FF00010BD0168CA6822F49072CA6001684A69EB
:1050000022F001024A61202180F83A1070470168BD
:10501000CA6822F0C002CA60202180F839107047A7
:105020002DE9F041044600680169E26821F440512D
:10503000114301612169A06808436169084321683F
:10504000CA6841F20C639A430243CA60206841690E
:10505000A26921F44071114341614C4920686425E3
:10506000322688423CD1FCF7FFFF00EBC00101EB88
:10507000001061688900B0FBF1F7FCF7F5FF00EB69
:10508000C00101EB00106168B0468900B0FBF1F08F
:10509000B0FBF5F06FF01801484307EB800106EB19
:1050A0000110B0FBF5F000F0F006FCF7DDFF00EBBF
:1050B000C00101EB001061688900B0FBF1F0B0FBAA
:1050C000F5F006EB0016FCF7CFFF00EBC00101EB9B
:1050D000001061688900B0FBF1F7FCF7C5FF3BE009
:1050E000FCF7B2FF00EBC00101EB00106168890022
:1050F000B0FBF1F7FCF7A8FF00EBC00101EB0010DB
:105100006168B0468900B0FBF1F0B0FBF5F06FF0DC
:105110001801484307EB800106EB0110B0FBF5F0E6
:1051200000F0F006FCF790FF00EBC00101EB00106F
:1051300061688900B0FBF1F0B0FBF5F006EB0016FA
:10514000FCF782FF00EBC00101EB001061688900F1
:10515000B0FBF1F7FCF778FF00EBC00101EB0010AA
:1051600061688900B0FBF1F0B0FBF5F06FF0180159
:10517000484307EB800108EB0110B0FBF5F0216814
:1051800000F00F0030448860BDE8F0810038014035
:10519000FEE702E008C8121F08C1002AFAD17047D2
:1051A0007047002001E001C1121F002AFBD17047A7
:1051B0002DE9F04790468A468288C188544200898A
:1051C00065184B42404205441C442EB2044411442D
:1051D00025B201440CB2D118084407B24FF47A70DA
:1051E000864205DA854203DA844201DA874234DBFB
:1051F0003046854200DD2846844200DD2046874255
:1052000000DD3846FBF7B3F901461A48FBF758F8BA
:1052100081463046FBF7ABF94946FBF71FF8FBF731
:10522000B4F906B22846FBF7A2F94946FBF716F88F
:10523000FBF7ABF905B22046FBF799F94946FBF7B6
:105240000DF8FBF7A2F904B23846FBF790F949468E
:10525000FBF704F8FBF799F907B2C8F85070C8F8E3
:105260002860C8F800500121C8F878408AF8011079
:10527000BDE8F08700007A44E2A28CB00FCA0DF1BD
:105280000C0C4FF023088CE80F00E2A12D27D1E988
:105290000001CDE90701002002900190FCF71AFD02
:1052A000FFF7B4FCFEF73CFCDC48416941F001012A
:1052B00041614069002200F0010000901146102079
:1052C000FCF764FD1020FCF755FD0022114611206B
:1052D000FCF75CFD1120FCF74DFDFEF75BFEFEF7D1
:1052E000F9FBFEF7F5FCCF48CD4900240160CE491B
:1052F000C0E901144FF48041C0E903414461846175
:10530000C4610462FCF7BCFA00B1FEE7FEF70EFED2
:10531000FEF7D8FDC6480994C4490A9401604721A4
:10532000C0E901144FF6FF718461C160FDF7CDF84B
:1053300000B1FEE7099409A9BD480A94FDF79DF85C
:1053400000B1FEE7FEF774FDFEF758FEB848B94914
:10535000803001604FF41651C0E901140C21C46083
:10536000C0E904418461C461FDF729FB00B1FEE797
:1053700064210220FFF738FC00F02CFAAE4801252A
:10538000A8490570A146AD4BAD4ADC390094FEF743
:10539000ADFEAC48057000F059FAFBF7D7FAA64C01
:1053A000241F6070FEF7F3F8FFF712FA10B184F8CB
:1053B00000901CE02078D0B1FFF7EDF90021082320
:1053C000A1A20846FFF7D2FA607820B1012805D0E3
:1053D00002280CD105E008239EA204E008239EA227
:1053E00001E008239DA206210020FFF7BFFA8D4DA2
:1053F000DFF870A23C3D4FF47A7642F2107B00BF9A
:10540000FEF74EFB607820B101280AD002283BD17C
:105410000FE0844A88483C3AA2F1A001FFF736FB2E
:1054200032E0804A84483C3AA2F1A001FBF72CFA12
:105430002AE0FCF723F90299884225D9019830B176
:10544000012807D002280AD0032811D10CE04FF41C
:105450002F7005E0A5F804904FF42F7007E0824804
:10546000A880A5F8069003E07F48A5F80490E8809E
:105470000120A8720198401C00F003000190FCF785
:10548000FDF800F57A700290FFF758F9DAF800009D
:10549000AA214843B0FBF6F0A060A87A40B1614A67
:1054A0006549DC3A02F1A000FFF782FE85F80A9018
:1054B0002078E0B3FCF7E2F840453BD3A0685946BA
:1054C000B0FBF1F242F030028DF81120B0FBFBF29C
:1054D0000BFB1201B1FBF6F141F030018DF8121017
:1054E000B0FBF6F106FB11026421B2FBF1F242F0CF
:1054F00030028DF81320B0FBF1F201FB12020A21F9
:10550000B2FBF1F242F030028DF81420B0FBF1F260
:1055100001FB120040F030008DF815000C2303AAA7
:1055200002210020FFF722FAFCF7A8F800E001E0D2
:1055300000F147083B48DC38FBF7F6FA39493E48AA
:10554000DC39FEF741FE3C48801EFBF72FFA90B194
:105550003948FEF7F1FD207828B1082343A2052140
:105560000020FFF703FA3C215846FFF73DFB00BF40
:10557000FEF796FAFCE7207800283FF441AFFCF7ED
:105580007DF8B842FFF43CAF60884FF4A561484312
:1055900040F6FF71B0FBF1F080B2B0FBFBF20BFB09
:1055A0001201B1FBF6F1608041F030018DF81C1062
:1055B000B0FBF6F106FB11026421B2FBF1F242F0FE
:1055C00030028DF81D20B0FBF1F201FB12020A211E
:1055D000B2FBF1F242F030028DF81F20B0FBF1F285
:1055E00001FB120040F030008DF82000082307AACC
:1055F00004210020FFF7BAF9FCF740F800F1650735
:10560000FEE60000446973743A30303030306D6D1E
:105610000000000030302E303056000000100240F4
:105620000054004078010020801A0600001000405D
:10563000CC02002000440040600000203855B83DF6
:1056400090C2853F3C00002057656C636F6D6521FB
:10565000000000005053320042540000544553549F
:10566000000000004400002044FDFFFF4C6F772045
:105670004261747465727921000000002DE9F05FC9
:10568000424C206A40F001002062206A40F0100085
:105690002062206AA51540F480702062206AA6145A
:1056A00040F480502062206A40F004002062206AAA
:1056B00040F040002062206A271540F4806020629C
:1056C000002201212046FEF7C3F9002210212046C6
:1056D000FEF7BEF9002229462046FEF7B9F900225E
:1056E00031462046FEF7B4F9022204212046FEF797
:1056F000AFF9022240212046FEF7AAF902223946DC
:105700002046FEF7A5F9234C2149656148146061E4
:105710006761214F80006061214DDFF8808080004B
:105720006861DFF8809040006861DFF87CB040007D
:105730006861DFF878A06E6101222046FDF7D8FF8E
:1057400001221B492046FDF7D3FF012219492046BB
:10575000FDF7CEFF092239462046FDF7C9FF012299
:1057600041462846FDF7C4FF012249462846FDF779
:10577000BFFF012259462846FDF7BAFF5146284689
:10578000BDE8F05F0122FDF7B3BF0000002C01402F
:105790000100010400080140080008042000200462
:1057A000000C014040004004800080041000100400
:1057B0000200020404000404002101E000BF491CAF
:1057C0008142FBD37047002101E000BF491C8142A8
:1057D000FBD37047194810B5416C41F40041416456
:1057E000016841F001010160016A41F001010162BB
:1057F000016A41F010010162016A41F480710162A5
:10580000016A41F480510162016A41F004010162C0
:10581000016A41F040010162016A41F48061016264
:1058200018210748FCF7C8FF18210648FCF7C4FFF9
:10583000BDE8104018210448FCF7BEBF002C014011
:105840000C0200204C0200208C02002010B5082120
:105850000A48FDF797F800210948FDF793F804215D
:105860000748FDF78FF808210548FDF78BF8BDE8DC
:1058700010400C210248FDF785B80000CC01002043
:105880000C03002000020406080A0C0000000000BF
:10589000000000002F000000000700070000147F38
:1058A000147F1400242A7F2A120062640813230044
:1058B000364955225000000503000000001C22411B
:1058C00000000041221C000014083E0814000808D3
:1058D0003E0808000000A060000008080808080052
:1058E0000060600000002010080402003E5149459D
:1058F0003E0000427F400000426151494600214184
:10590000454B31001814127F1000274545453900DA
:105910003C4A4949300001710905030036494949AB
:105920003600064949291E000036360000000056A0
:10593000360000000814224100001414141414004E
:105940000041221408000201510906003249595150
:105950003E007C1211127C007F49494936003E41CD
:10596000414122007F4141221C007F4949494100B9
:105970007F09090901003E4149497A007F0808086A
:105980007F0000417F4100002040413F01007F082F
:10599000142241007F40404040007F020C027F0003
:1059A0007F0408107F003E4141413E007F09090904
:1059B00006003E4151215E007F09192946004649F3
:1059C0004949310001017F0101003F4040403F0053
:1059D0001F2040201F003F4038403F006314081440
:1059E0006300070870080700615149454300007FC4
:1059F00041410000552A552A55000041417F0000D1
:105A00000402010204004040404040000001020442
:105A100000002054545478007F48444438003844EF
:105A200044442000384444487F00385454541800FB
:105A3000087E0901020018A4A4A47C007F080404C5
:105A4000780000447D4000004080847D00007F108D
:105A50002844000000417F4000007C0418047800C6
:105A60007C0804047800384444443800FC2424248E
:105A7000180018242418FC007C080404080048546A
:105A800054542000043F444020003C4040207C000F
:105A90001C2040201C003C4030403C004428102882
:105AA00044001CA0A0A07C004464544C4414141472
:105AB00014141400000000000000000000000000AA
:105AC000000000000000F80000000000000033307B
:105AD00000000000100C06100C0600000000000082
